{
  "hash": "e575553e68aa4ce2031c1609fc639524cd0ccb540e936be697cfa725876fe8de",
  "confirmations": 7486,
  "strippedsize": 5005,
  "size": 5005,
  "weight": 20020,
  "height": 553617,
  "version": 0,
  "versionhex": "00000000",
  "merkleroot": "f8bbbc806ff151e9aa5269cdf34d85a9badebd3ef2acdb0ccc059721024c6a4c",
  "tx": [
    {
      "txid": "4280b04bbc0b522f264010bda83bb5aba96b5b28985dde088921bb4d114c7bd2",
      "hash": "4280b04bbc0b522f264010bda83bb5aba96b5b28985dde088921bb4d114c7bd2",
      "size": 194,
      "vsize": 194,
      "version": 9,
      "type": 0,
      "payloadversion": 4,
      "payload": {
        "coinbasedata": "BT"
      },
      "attributes": [
        {
          "usage": 0,
          "data": "a4f997403e0eb781"
        }
      ],
      "vin": [
        {
          "txid": "0000000000000000000000000000000000000000000000000000000000000000",
          "vout": 65535,
          "sequence": 4294967295
        }
      ],
      "vout": [
        {
          "value": "1.50715202",
          "n": 0,
          "address": "8VYXVxKKSAxkmRrfmGpQR2Kc66XhG6m3ta",
          "assetid": "a3d0eaa466df74983b5d7c543de6904f4c9418ead5ffd6d25814234a96db37b0",
          "outputlock": 0,
          "type": 0,
          "payload": {}
        },
        {
          "value": "1.75834401",
          "n": 1,
          "address": "EKzRMbN6dHv48ikToUu5gMWaFHQGWgzSPU",
          "assetid": "a3d0eaa466df74983b5d7c543de6904f4c9418ead5ffd6d25814234a96db37b0",
          "outputlock": 0,
          "type": 0,
          "payload": {}
        }
      ],
      "locktime": 553617,
      "programs": [],
      "blockhash": "e575553e68aa4ce2031c1609fc639524cd0ccb540e936be697cfa725876fe8de",
      "confirmations": 7486,
      "time": 1578987584,
      "blocktime": 1578987584
    },
    {
      "txid": "f459f496963b360d6cffb21efd3b6dffc5a4eb5d704aed914ac3e777892ac678",
      "hash": "f459f496963b360d6cffb21efd3b6dffc5a4eb5d704aed914ac3e777892ac678",
      "size": 369,
      "vsize": 369,
      "version": 0,
      "type": 5,
      "payloadversion": 0,
      "payload": {
        "blockheight": 281940,
        "sideblockhash": "870cc5bbf777bc6ee55b92906c6f4c364ff6d73590f54d0559d6b875841bd859",
        "sidegenesishash": "a3c455a90843db2acd22554f2768a8d4233fafbf8dd549e6b261c2786993be56",
        "signature": "c50c94462483f8e4f73730f087907c27c05b7cf3b3c44194e7c1eb07834980c39a6934ee46e56a47c7e2abd466f06f6cb561cfa76b720a069d2903d1cf9ed71b"
      },
      "attributes": [
        {
          "usage": 0,
          "data": "38323330313634323832373130393532353135"
        }
      ],
      "vin": [
        {
          "txid": "f8d35d56a80cf3f815d235aba570eecc3e637a6e3ed18b9c6a05abd4646ad278",
          "vout": 0,
          "sequence": 0
        }
      ],
      "vout": [
        {
          "value": "0",
          "n": 0,
          "address": "EVK5qrgxgTxH5yKxPSCDRYoMX1NLeKrBox",
          "assetid": "a3d0eaa466df74983b5d7c543de6904f4c9418ead5ffd6d25814234a96db37b0",
          "outputlock": 0,
          "type": 0,
          "payload": null
        }
      ],
      "locktime": 553615,
      "programs": [
        {
          "code": "2103ea6a82c631c7208a3f1303d837967ad68a809de3e03f37e9d04131039ff40e6dac",
          "parameter": "40933ed85dd96e1cb7b214f7b13684b4f1e68bc26928ca7db0984b198ddf9c8ca7abb66ef18ff91f5d74e81eabc9c39a4dd46496af93ff11855178a40777427f63"
        }
      ],
      "blockhash": "e575553e68aa4ce2031c1609fc639524cd0ccb540e936be697cfa725876fe8de",
      "confirmations": 7486,
      "time": 1578987584,
      "blocktime": 1578987584
    },
    {
      "txid": "59435fb2f845cd5517bb9f3c3a67eca8c6b6a99e1c832e6869c961a1912fa206",
      "hash": "59435fb2f845cd5517bb9f3c3a67eca8c6b6a99e1c832e6869c961a1912fa206",
      "size": 369,
      "vsize": 369,
      "version": 0,
      "type": 5,
      "payloadversion": 0,
      "payload": {
        "blockheight": 153660,
        "sideblockhash": "3e53d8756b3b070a4d06612186676b4e0a4e28858d54390b8ec099cb14edee82",
        "sidegenesishash": "0e739a2b87774ef2266a3cabc79a8e1201732fe409cfe50bd4125efb1d1169b5",
        "signature": "116744d5a7eb83bd6233078aa579e6d1c2b1336b8ee97944c58fae25c9f261b6171f36dbb61ac27f77c55e95dbd34cb38169f16e31d214c5d33e0cc2900cc54f"
      },
      "attributes": [
        {
          "usage": 0,
          "data": "34373238383138363134373731383637323830"
        }
      ],
      "vin": [
        {
          "txid": "6234c4b5a4cdcec898f471bb0a491f43ed6cfc7439855792b615fb9f8c760119",
          "vout": 0,
          "sequence": 0
        }
      ],
      "vout": [
        {
          "value": "0.00450000",
          "n": 0,
          "address": "ES6RjPA6hrbYf81c4ZFNjDpEAUSb3RTsuo",
          "assetid": "a3d0eaa466df74983b5d7c543de6904f4c9418ead5ffd6d25814234a96db37b0",
          "outputlock": 0,
          "type": 0,
          "payload": null
        }
      ],
      "locktime": 553615,
      "programs": [
        {
          "code": "2103809c71ba3a863a7fb46c25690e345c44373f6e978a10de93d79de3ee5c2daa17ac",
          "parameter": "40d9e4438f207b8f6c8fdad730016aef6878c2fab011d7a9b277670bfaa33a091442644e19c7a63fcef5e80237ae14ef9cf92413625b9eb6e3a79d6e52b10e5870"
        }
      ],
      "blockhash": "e575553e68aa4ce2031c1609fc639524cd0ccb540e936be697cfa725876fe8de",
      "confirmations": 7486,
      "time": 1578987584,
      "blocktime": 1578987584
    },
    {
      "txid": "ab5c9284de45f3fe424b762bd335d03074002fb30d50bf2e4ff76b0dd375b709",
      "hash": "ab5c9284de45f3fe424b762bd335d03074002fb30d50bf2e4ff76b0dd375b709",
      "size": 345,
      "vsize": 345,
      "version": 0,
      "type": 2,
      "payloadversion": 0,
      "payload": null,
      "attributes": [
        {
          "usage": 129,
          "data": "747970653a746578742c6d73673a46726f6d20454c4142616e6b2c4879706572205375706572204e6f64652052657761726420446973747269627574696f6e"
        }
      ],
      "vin": [
        {
          "txid": "a820219069440714e8f68794998085a1299a81b767d8a29120735c0fc91ac317",
          "vout": 1,
          "sequence": 0
        }
      ],
      "vout": [
        {
          "value": "0.00455040",
          "n": 0,
          "address": "Ed57c3wF3J1u8vEYE9cjGUpqGPkEJC69v8",
          "assetid": "a3d0eaa466df74983b5d7c543de6904f4c9418ead5ffd6d25814234a96db37b0",
          "outputlock": 0,
          "type": 0,
          "payload": null
        },
        {
          "value": "49.40472446",
          "n": 1,
          "address": "EdFc2geLZgG1UHfzsWGHZgkio8fBsJ8Fup",
          "assetid": "a3d0eaa466df74983b5d7c543de6904f4c9418ead5ffd6d25814234a96db37b0",
          "outputlock": 0,
          "type": 0,
          "payload": null
        }
      ],
      "locktime": 0,
      "programs": [
        {
          "code": "210375fb999df923a52ee6c01ddb8a1a62d6ee9b68e7b02e99ed25707bc3e1257b39ac",
          "parameter": "402e6f597c3ea54293eaf86ba578c9ac756b2dd0a27f5b98cb87e847c6b57b97158bf8641f28f2501da613cbaf923f08681f1b13d91dd3605c5556c990073d0161"
        }
      ],
      "blockhash": "e575553e68aa4ce2031c1609fc639524cd0ccb540e936be697cfa725876fe8de",
      "confirmations": 7486,
      "time": 1578987584,
      "blocktime": 1578987584
    },
    {
      "txid": "8a8e8d4be3e5e397e0e9884b6f34bd3eeddd2407e36f26f03e75427666e09bad",
      "hash": "8a8e8d4be3e5e397e0e9884b6f34bd3eeddd2407e36f26f03e75427666e09bad",
      "size": 347,
      "vsize": 347,
      "version": 0,
      "type": 2,
      "payloadversion": 0,
      "payload": null,
      "attributes": [
        {
          "usage": 129,
          "data": "747970653a746578742c6d73673a46726f6d20454c4142616e6b2c54686169456c61205375706572204e6f64652052657761726420446973747269627574696f6e"
        }
      ],
      "vin": [
        {
          "txid": "9777ddcf5a2647578570b46258664db3d7ad397a07c1e3a204f8a5bb9001aa4f",
          "vout": 1,
          "sequence": 0
        }
      ],
      "vout": [
        {
          "value": "0.00429918",
          "n": 0,
          "address": "Ed57c3wF3J1u8vEYE9cjGUpqGPkEJC69v8",
          "assetid": "a3d0eaa466df74983b5d7c543de6904f4c9418ead5ffd6d25814234a96db37b0",
          "outputlock": 0,
          "type": 0,
          "payload": null
        },
        {
          "value": "20.73341605",
          "n": 1,
          "address": "EXuF9pAnZ8pwyGjJvvDrx73kfpi4oNeqyW",
          "assetid": "a3d0eaa466df74983b5d7c543de6904f4c9418ead5ffd6d25814234a96db37b0",
          "outputlock": 0,
          "type": 0,
          "payload": null
        }
      ],
      "locktime": 0,
      "programs": [
        {
          "code": "2102b82e13f3a66493411c853e3386a3beb71103485b3bca986da06d015a570c6faeac",
          "parameter": "40b3977b9d2311657498808fa0db4e69952416d1fa33a0ab8ee2c5c55bf083b2579f25e74d9375bc8fac6792264221670320c6cc7a2347a785d7a84e507e01f3c5"
        }
      ],
      "blockhash": "e575553e68aa4ce2031c1609fc639524cd0ccb540e936be697cfa725876fe8de",
      "confirmations": 7486,
      "time": 1578987584,
      "blocktime": 1578987584
    },
    {
      "txid": "8316f49ab94515df6ac2c8778ce68905b409e2961cbc7189a7b30056a99bdbb1",
      "hash": "8316f49ab94515df6ac2c8778ce68905b409e2961cbc7189a7b30056a99bdbb1",
      "size": 348,
      "vsize": 348,
      "version": 0,
      "type": 2,
      "payloadversion": 0,
      "payload": null,
      "attributes": [
        {
          "usage": 129,
          "data": "747970653a746578742c6d73673a46726f6d20454c4142616e6b2c456c6174652e6368205375706572204e6f64652052657761726420446973747269627574696f6e"
        }
      ],
      "vin": [
        {
          "txid": "028a45d241e5bab66c2662a86d19227d0715688d682ced5012ccf00c374d634c",
          "vout": 1,
          "sequence": 0
        }
      ],
      "vout": [
        {
          "value": "0.00442731",
          "n": 0,
          "address": "Ed57c3wF3J1u8vEYE9cjGUpqGPkEJC69v8",
          "assetid": "a3d0eaa466df74983b5d7c543de6904f4c9418ead5ffd6d25814234a96db37b0",
          "outputlock": 0,
          "type": 0,
          "payload": null
        },
        {
          "value": "0.71105833",
          "n": 1,
          "address": "Ec9vxngoQQQmJmc58nsjfQLiMDi3CGXE6d",
          "assetid": "a3d0eaa466df74983b5d7c543de6904f4c9418ead5ffd6d25814234a96db37b0",
          "outputlock": 0,
          "type": 0,
          "payload": null
        }
      ],
      "locktime": 0,
      "programs": [
        {
          "code": "2103765c796b51d4ad88ca92c7f53771239ab986cf20e1c8ab96e0a93c43e1939e13ac",
          "parameter": "40c9bb2ad1514dd255ba5e126b40fcd697b7fbcb6b720c3b86d368804e4e2ba2acda459a1ba9d0edfeeec107b87af07329017affe8912b0e5a8b023024e4142d69"
        }
      ],
      "blockhash": "e575553e68aa4ce2031c1609fc639524cd0ccb540e936be697cfa725876fe8de",
      "confirmations": 7486,
      "time": 1578987584,
      "blocktime": 1578987584
    },
    {
      "txid": "eab53dcedbce9c84bc37013ea8f0f7c76a17317637b3be59529ef8cfe6c422dc",
      "hash": "eab53dcedbce9c84bc37013ea8f0f7c76a17317637b3be59529ef8cfe6c422dc",
      "size": 348,
      "vsize": 348,
      "version": 0,
      "type": 2,
      "payloadversion": 0,
      "payload": null,
      "attributes": [
        {
          "usage": 129,
          "data": "747970653a746578742c6d73673a46726f6d20454c4142616e6b2c5374617266697368205375706572204e6f64652052657761726420446973747269627574696f6e"
        }
      ],
      "vin": [
        {
          "txid": "2f1365560bb53b431b9e4bb9fae285ee8300d88de40c87b54dbb9f71a756d328",
          "vout": 1,
          "sequence": 0
        }
      ],
      "vout": [
        {
          "value": "0.00250101",
          "n": 0,
          "address": "Ed57c3wF3J1u8vEYE9cjGUpqGPkEJC69v8",
          "assetid": "a3d0eaa466df74983b5d7c543de6904f4c9418ead5ffd6d25814234a96db37b0",
          "outputlock": 0,
          "type": 0,
          "payload": null
        },
        {
          "value": "5.85234525",
          "n": 1,
          "address": "EZFBFtUdRhtGeYF4U4xRZRAKmr2xwX5DWi",
          "assetid": "a3d0eaa466df74983b5d7c543de6904f4c9418ead5ffd6d25814234a96db37b0",
          "outputlock": 0,
          "type": 0,
          "payload": null
        }
      ],
      "locktime": 0,
      "programs": [
        {
          "code": "2103971c074f906734969c408c36297c391d559bdfcfaf6b8881a1505765d1381607ac",
          "parameter": "403f4ee7d4812554819166b1c1ae7ed5bb4fc41f2993b36da58acb343a4651c996cf6040dd022b23bdb5b3ecadeed93a40fd4fa09b55e17c1e4516f5b84d040b90"
        }
      ],
      "blockhash": "e575553e68aa4ce2031c1609fc639524cd0ccb540e936be697cfa725876fe8de",
      "confirmations": 7486,
      "time": 1578987584,
      "blocktime": 1578987584
    },
    {
      "txid": "884e857f995033e2fc5a8be35385c024dec96e306924ce1477adae19e2c19766",
      "hash": "884e857f995033e2fc5a8be35385c024dec96e306924ce1477adae19e2c19766",
      "size": 355,
      "vsize": 355,
      "version": 0,
      "type": 2,
      "payloadversion": 0,
      "payload": null,
      "attributes": [
        {
          "usage": 129,
          "data": "747970653a746578742c6d73673a46726f6d20454c4142616e6b2c4f72696f6e2053757065726e6f6465205375706572204e6f64652052657761726420446973747269627574696f6e"
        }
      ],
      "vin": [
        {
          "txid": "f21145edb56083a158ad373b7384776af740ed0e6a552224f695e8c90b4cb3b2",
          "vout": 1,
          "sequence": 0
        }
      ],
      "vout": [
        {
          "value": "0.00438943",
          "n": 0,
          "address": "Ed57c3wF3J1u8vEYE9cjGUpqGPkEJC69v8",
          "assetid": "a3d0eaa466df74983b5d7c543de6904f4c9418ead5ffd6d25814234a96db37b0",
          "outputlock": 0,
          "type": 0,
          "payload": null
        },
        {
          "value": "1.10791710",
          "n": 1,
          "address": "EZnr9yo7rxHaCCUZEiFm1ipvgcZ9a6RmXu",
          "assetid": "a3d0eaa466df74983b5d7c543de6904f4c9418ead5ffd6d25814234a96db37b0",
          "outputlock": 0,
          "type": 0,
          "payload": null
        }
      ],
      "locktime": 0,
      "programs": [
        {
          "code": "2102681b1d10e925976a2e50385957a3797e2621419dfe6535712e6998d2c5626dd3ac",
          "parameter": "400881bacfda7b79a4fab92a30bf604f019b1d10d46625a615d90795d1829e4d9498ed1ffb98261e49a4c780c2f8379712474fe5104f819ea02122a295bcdbf9e9"
        }
      ],
      "blockhash": "e575553e68aa4ce2031c1609fc639524cd0ccb540e936be697cfa725876fe8de",
      "confirmations": 7486,
      "time": 1578987584,
      "blocktime": 1578987584
    },
    {
      "txid": "10097ccb958683f608858bd9fae1239dce60752e54479ad972a03918b1fa2767",
      "hash": "10097ccb958683f608858bd9fae1239dce60752e54479ad972a03918b1fa2767",
      "size": 357,
      "vsize": 357,
      "version": 0,
      "type": 2,
      "payloadversion": 0,
      "payload": null,
      "attributes": [
        {
          "usage": 129,
          "data": "747970653a746578742c6d73673a46726f6d20454c4142616e6b2c456c6173746f73204175737472616c6961205375706572204e6f64652052657761726420446973747269627574696f6e"
        }
      ],
      "vin": [
        {
          "txid": "ccf7a150f8b6d5499c8061bd3fa8663a173aab802d291f22ec4035083545593b",
          "vout": 1,
          "sequence": 0
        }
      ],
      "vout": [
        {
          "value": "0.00251440",
          "n": 0,
          "address": "Ed57c3wF3J1u8vEYE9cjGUpqGPkEJC69v8",
          "assetid": "a3d0eaa466df74983b5d7c543de6904f4c9418ead5ffd6d25814234a96db37b0",
          "outputlock": 0,
          "type": 0,
          "payload": null
        },
        {
          "value": "0.56164807",
          "n": 1,
          "address": "EZGnzQ5a4HcDVedcCkk7TKzcTVC2NA4rYp",
          "assetid": "a3d0eaa466df74983b5d7c543de6904f4c9418ead5ffd6d25814234a96db37b0",
          "outputlock": 0,
          "type": 0,
          "payload": null
        }
      ],
      "locktime": 0,
      "programs": [
        {
          "code": "21037032f7296fb7e1cdb314af6177eb0633f4e2b96ad758f4353b6198dbce347c36ac",
          "parameter": "405b2f4ad46d0d9276e61422b6bf796dd6d1c6f8a107cb4d1782a132bf0fd7038ec9008314b41dabd75b625299cec521510a398800de9915e6a9eb820e288f089b"
        }
      ],
      "blockhash": "e575553e68aa4ce2031c1609fc639524cd0ccb540e936be697cfa725876fe8de",
      "confirmations": 7486,
      "time": 1578987584,
      "blocktime": 1578987584
    },
    {
      "txid": "15047996814f39be21baaa614064b19cc5200b596541245e19acb35c9fc1079b",
      "hash": "15047996814f39be21baaa614064b19cc5200b596541245e19acb35c9fc1079b",
      "size": 359,
      "vsize": 359,
      "version": 0,
      "type": 2,
      "payloadversion": 0,
      "payload": null,
      "attributes": [
        {
          "usage": 129,
          "data": "747970653a746578742c6d73673a46726f6d20454c4142616e6b2c456c6173746f73205363616e64696e61766961205375706572204e6f64652052657761726420446973747269627574696f6e"
        }
      ],
      "vin": [
        {
          "txid": "b475e822ec6666bb3533faf07696b0574247b8f9f432c288110b0dc109685e61",
          "vout": 1,
          "sequence": 0
        }
      ],
      "vout": [
        {
          "value": "0.00504375",
          "n": 0,
          "address": "Ed57c3wF3J1u8vEYE9cjGUpqGPkEJC69v8",
          "assetid": "a3d0eaa466df74983b5d7c543de6904f4c9418ead5ffd6d25814234a96db37b0",
          "outputlock": 0,
          "type": 0,
          "payload": null
        },
        {
          "value": "28.71639830",
          "n": 1,
          "address": "EU21hYtYPe4aKSLsXwMnhGA1tSjqJPbEz7",
          "assetid": "a3d0eaa466df74983b5d7c543de6904f4c9418ead5ffd6d25814234a96db37b0",
          "outputlock": 0,
          "type": 0,
          "payload": null
        }
      ],
      "locktime": 0,
      "programs": [
        {
          "code": "21026259ce9a95cb8af575e5d12447f6cbbe981a844a2e85a2438778574228cb52ccac",
          "parameter": "4030aace1aa630069468388e5e564f76f069c09b718bc4d598dd99b6817207592c0b66b0862a66583aebb028b8ffebe86b3d1c703173a8702bb5c4197a6901d806"
        }
      ],
      "blockhash": "e575553e68aa4ce2031c1609fc639524cd0ccb540e936be697cfa725876fe8de",
      "confirmations": 7486,
      "time": 1578987584,
      "blocktime": 1578987584
    },
    {
      "txid": "aad88e3cb1ded2626f57f64d1e7af8e44e4de8b9503001763a38b8c652f35c00",
      "hash": "aad88e3cb1ded2626f57f64d1e7af8e44e4de8b9503001763a38b8c652f35c00",
      "size": 363,
      "vsize": 363,
      "version": 0,
      "type": 2,
      "payloadversion": 0,
      "payload": null,
      "attributes": [
        {
          "usage": 129,
          "data": "747970653a746578742c6d73673a46726f6d20454c4142616e6b2c57696c64205374726177626572726965732041746c6173205375706572204e6f64652052657761726420446973747269627574696f6e"
        }
      ],
      "vin": [
        {
          "txid": "3116f6936d332f3f34c05a365eaecf723de27c7e2d8681cae3c2e8e0c746909c",
          "vout": 1,
          "sequence": 0
        }
      ],
      "vout": [
        {
          "value": "0.00497162",
          "n": 0,
          "address": "Ed57c3wF3J1u8vEYE9cjGUpqGPkEJC69v8",
          "assetid": "a3d0eaa466df74983b5d7c543de6904f4c9418ead5ffd6d25814234a96db37b0",
          "outputlock": 0,
          "type": 0,
          "payload": null
        },
        {
          "value": "20.08395418",
          "n": 1,
          "address": "EeA9Y6ngsMHYJbXfw6L15h5fo7NnShAZfs",
          "assetid": "a3d0eaa466df74983b5d7c543de6904f4c9418ead5ffd6d25814234a96db37b0",
          "outputlock": 0,
          "type": 0,
          "payload": null
        }
      ],
      "locktime": 0,
      "programs": [
        {
          "code": "2102773cd819e441bf662d43275350b26b7d04987668d6dcf2db5029cc29dd566b2aac",
          "parameter": "40b2873a134fbe8a39b647d64afe699c99adab102363e0d358f371edb83af68650674289122e5bf2979dc6017b9f7d7ae5b8d337caf5ade67e08d2bdd26c8f61bd"
        }
      ],
      "blockhash": "e575553e68aa4ce2031c1609fc639524cd0ccb540e936be697cfa725876fe8de",
      "confirmations": 7486,
      "time": 1578987584,
      "blocktime": 1578987584
    },
    {
      "txid": "a1a0fa802d7eb2fc089f7269d2070a62ed9bbc013a81bc1282efb1ab31cfbb5e",
      "hash": "a1a0fa802d7eb2fc089f7269d2070a62ed9bbc013a81bc1282efb1ab31cfbb5e",
      "size": 364,
      "vsize": 364,
      "version": 0,
      "type": 2,
      "payloadversion": 0,
      "payload": null,
      "attributes": [
        {
          "usage": 129,
          "data": "747970653a746578742c6d73673a46726f6d20454c4142616e6b2c5175616e74756d205765616c74682053757065726e6f6465205375706572204e6f64652052657761726420446973747269627574696f6e"
        }
      ],
      "vin": [
        {
          "txid": "e7c730122938cadfcdc31fcb6c4079a2e6666efd669ba40e547561dc370382f8",
          "vout": 1,
          "sequence": 0
        }
      ],
      "vout": [
        {
          "value": "0.00147648",
          "n": 0,
          "address": "Ed57c3wF3J1u8vEYE9cjGUpqGPkEJC69v8",
          "assetid": "a3d0eaa466df74983b5d7c543de6904f4c9418ead5ffd6d25814234a96db37b0",
          "outputlock": 0,
          "type": 0,
          "payload": null
        },
        {
          "value": "1.48124122",
          "n": 1,
          "address": "ENxULMGfeXi7Sy4cn4f62oYqYwh9Df8Awn",
          "assetid": "a3d0eaa466df74983b5d7c543de6904f4c9418ead5ffd6d25814234a96db37b0",
          "outputlock": 0,
          "type": 0,
          "payload": null
        }
      ],
      "locktime": 0,
      "programs": [
        {
          "code": "210275172af6780c6f4d88ab4a0e2f114ddeebe9670cc98d5c8bdd6a073396b4c87dac",
          "parameter": "4065ceb9d5b784f7147f93a99b6bc6616a8eea675d633de542afb236dbecc8a7e1156df168a7ecc9d4f4d416d883ded08c99b43d3b28e5c0cc21a15f74ce25eaa6"
        }
      ],
      "blockhash": "e575553e68aa4ce2031c1609fc639524cd0ccb540e936be697cfa725876fe8de",
      "confirmations": 7486,
      "time": 1578987584,
      "blocktime": 1578987584
    }
  ],
  "time": 1578987584,
  "mediantime": 1578987584,
  "nonce": 0,
  "bits": 402696304,
  "difficulty": "3848530590662060",
  "chainwork": "00001d3d",
  "previousblockhash": "992d68749bf0ef5d848bf337736bb671b320766725d2a2651d31c8a649939af4",
  "nextblockhash": "6f4d5311c292f666609694c1543cb9eb4560e7ffd6c5fbf5470b3b5c88653af8",
  "auxpow": "02000000010000000000000000000000000000000000000000000000000000000000000000ffffffff5303a05909044b701d5e686b30352f62797465706f6f6c2e636f6d2ffabe6d6d4782210dfc3349015817c00acfeb8a4101e71241c5113996de3db7280a5bad21020000004204cb9a898d707be5a6b25d38ad5900ffffffff031c43974b0000000017a9145885ab54ce79c9384af724709edb2eb08bfa8ff7870000000000000000266a24aa21a9edef673ad9ed1b96ac4e7abdab223fb3ead39aa57c378d4a1df819a79a80682c820000000000000000266a24b9e11b6d14204de9f0891d2e43823a13edd194990414feabc91c295053c71785654452620000000000000000000000000005d31c037c0b079c5948fb950b3c03b4aee118b12002d00cd9ebf75af1b125e5ad0baf82956ae4c63b18a48f070e320fa50227563b087d9c271c22f797a2eae08dbda97c602c532cd48ff8cc2558eb0419de8250ac5c67f11a32e9f64d9557f77cf85b46d825cd52e097e162c2ee1f8f5e8593775154d68d0cac2a43e3aa7b9fa12f89f0a7c20ed19d4bfcb022b40ce01323ee1261937c04213c06d2e90bbf5707fb33743f16ea0705b9e9bba44bff26474d7b60ba0fca1711606bcf1cd1373c00c92abb3e669ea859ba75e2d84c0f4e19137003e705f9a16b8dd82cdc1dc5d9bd9bcfc908895df81f33a32bb6ba490a107ff0ac19dbb78822ae129cea706cb53c253e7f2685e4e765eb25d9c7a7f2dacd2b00422abe18ebcfc8684b615f817199d3d7022221771439e938256a32e32f0bc7ac782ce26d4580cade4e27735694be6ff7f5890a4e07eeb89bd7982bf33551eb5b8f575c319773b009fcb8cec780e28e1d6457a49a1ec0219b3c9e6bfa0a9c0a9fe23822d1cf8d650b5768895d210a34d937d81c7e7baf2334dcdd73d40762b686d24e7295eb0000000001fd42c3c55311788a3ae806a26487b4cf970bce6db99af73fb5998e92cf2019340000000000c0ff3fff2d71ef19f3a71872567a70c3dca274ca09f593a8a70c00000000000000000016cc90eb1f5cb8b0a3e242a1dacee357b8b88e3e04cda16d3d41315399f251d348701d5ef2651417dc7d1c7a",
  "minerinfo": "BT"
}
