{
  "hash": "463304491b29faa1a2c2ff8f8dfc9ac818b017e9718935ab074c77a234749024",
  "confirmations": 3394,
  "strippedsize": 2910,
  "size": 2910,
  "weight": 11640,
  "height": 553963,
  "version": 0,
  "versionhex": "00000000",
  "merkleroot": "2c056306c02d8de1e47933f84551e797e56835c3e37d2849d91ce77b68a9e4d5",
  "tx": [
    {
      "txid": "8379ee9866eb2e2c889fb473a6407d06d2ba7ff2819648b488f3daa09d48bf2b",
      "hash": "8379ee9866eb2e2c889fb473a6407d06d2ba7ff2819648b488f3daa09d48bf2b",
      "size": 199,
      "vsize": 199,
      "version": 9,
      "type": 0,
      "payloadversion": 4,
      "payload": {
        "coinbasedata": "Antpool"
      },
      "attributes": [
        {
          "usage": 0,
          "data": "f04e0cdfcb8694c3"
        }
      ],
      "vin": [
        {
          "txid": "0000000000000000000000000000000000000000000000000000000000000000",
          "vout": 65535,
          "sequence": 4294967295
        }
      ],
      "vout": [
        {
          "value": "1.50750932",
          "n": 0,
          "address": "8VYXVxKKSAxkmRrfmGpQR2Kc66XhG6m3ta",
          "assetid": "a3d0eaa466df74983b5d7c543de6904f4c9418ead5ffd6d25814234a96db37b0",
          "outputlock": 0,
          "type": 0,
          "payload": {}
        },
        {
          "value": "1.75876086",
          "n": 1,
          "address": "EQ34WaW2RmpZhqSUs4DEmVR1RB3zMiJEWe",
          "assetid": "a3d0eaa466df74983b5d7c543de6904f4c9418ead5ffd6d25814234a96db37b0",
          "outputlock": 0,
          "type": 0,
          "payload": {}
        }
      ],
      "locktime": 553963,
      "programs": [],
      "blockhash": "463304491b29faa1a2c2ff8f8dfc9ac818b017e9718935ab074c77a234749024",
      "confirmations": 3394,
      "time": 1579030546,
      "blocktime": 1579030546
    },
    {
      "txid": "7edc1fd6e6315f09a6544758fe3b9c22956af6db71d783bbf925044631751aff",
      "hash": "7edc1fd6e6315f09a6544758fe3b9c22956af6db71d783bbf925044631751aff",
      "size": 369,
      "vsize": 369,
      "version": 0,
      "type": 5,
      "payloadversion": 0,
      "payload": {
        "blockheight": 153894,
        "sideblockhash": "08096f81817a3ecda20a02489aaf7394917c0482d0d9d01af284f7357a74ce92",
        "sidegenesishash": "0e739a2b87774ef2266a3cabc79a8e1201732fe409cfe50bd4125efb1d1169b5",
        "signature": "414a344fb548ed03a13c983d0d919c7da7d94e45626b53ae84548bb5963ef0f53c99fd5d8fdc61f34ba4929c5bf72b887dd10e5ba583bd4e1629dd1bf84efe5e"
      },
      "attributes": [
        {
          "usage": 0,
          "data": "36393837343433383930383739383239313934"
        }
      ],
      "vin": [
        {
          "txid": "815681c3b687958b347a783ce638ab9d98b9545d4c4e4264931a80f40022f524",
          "vout": 0,
          "sequence": 0
        }
      ],
      "vout": [
        {
          "value": "0.00500000",
          "n": 0,
          "address": "EZQQEApojpUrDBCmwZcMNTTVnNzd4QGnmF",
          "assetid": "a3d0eaa466df74983b5d7c543de6904f4c9418ead5ffd6d25814234a96db37b0",
          "outputlock": 0,
          "type": 0,
          "payload": null
        }
      ],
      "locktime": 553961,
      "programs": [
        {
          "code": "21029e9b5efe0f67d14b4666d95dd59f794ff13ad3fb209572461c2d6de000a9dd9bac",
          "parameter": "408d902899004df43cdd9d78bdb71bea758da1ac4226c0651a4e6c0ab958ad8592dcdf26c49a3cdbdebb0c8efa111858c6a3872dea89f12e63db12c1fd3cb72668"
        }
      ],
      "blockhash": "463304491b29faa1a2c2ff8f8dfc9ac818b017e9718935ab074c77a234749024",
      "confirmations": 3394,
      "time": 1579030546,
      "blocktime": 1579030546
    },
    {
      "txid": "231bf687e4474b581f13940e9049867dfc6cf10e7ede139aebd4ab40d04bb104",
      "hash": "231bf687e4474b581f13940e9049867dfc6cf10e7ede139aebd4ab40d04bb104",
      "size": 369,
      "vsize": 369,
      "version": 0,
      "type": 5,
      "payloadversion": 0,
      "payload": {
        "blockheight": 282155,
        "sideblockhash": "fd7aa59d3abfe0f828d04623ae791841b52daa18155f671065a70d1f608a3923",
        "sidegenesishash": "a3c455a90843db2acd22554f2768a8d4233fafbf8dd549e6b261c2786993be56",
        "signature": "e7306a74d4aa8225ff400cfec3e85db53fd658e806a1d12494e680271a5f52f1c62ec05aa041f9a0cae26628ef66bbe6ab1a072d510295f452630259a4af394b"
      },
      "attributes": [
        {
          "usage": 0,
          "data": "38333036303033353235393835313034343831"
        }
      ],
      "vin": [
        {
          "txid": "eed953c21d19a3c4d69fc943587a153b029850f005eb3241e548e4792c2a9edf",
          "vout": 0,
          "sequence": 0
        }
      ],
      "vout": [
        {
          "value": "0.00550000",
          "n": 0,
          "address": "EanGX5Av1h1j1qWydx5aHmPA7Z2ocnvdmF",
          "assetid": "a3d0eaa466df74983b5d7c543de6904f4c9418ead5ffd6d25814234a96db37b0",
          "outputlock": 0,
          "type": 0,
          "payload": null
        }
      ],
      "locktime": 553961,
      "programs": [
        {
          "code": "21027cebb6fbb5e496a669f45a3926bae59ed4e75b354f94fe297fae585e75b7c038ac",
          "parameter": "404935592c6d60537747bdff99317cb56aeaf499e9d9f4ae9535e5f03933a9cec13dcf3a850d0514a34cab7f7c166a029c96c19ad4a66828129d7d55ae84921b2e"
        }
      ],
      "blockhash": "463304491b29faa1a2c2ff8f8dfc9ac818b017e9718935ab074c77a234749024",
      "confirmations": 3394,
      "time": 1579030546,
      "blocktime": 1579030546
    },
    {
      "txid": "6a8255cdbe95af48cbf1e5ab64b93c2080fa5d3e00bf0724a0125c6453f942cd",
      "hash": "6a8255cdbe95af48cbf1e5ab64b93c2080fa5d3e00bf0724a0125c6453f942cd",
      "size": 395,
      "vsize": 395,
      "version": 9,
      "type": 8,
      "payloadversion": 0,
      "payload": {
        "crosschainaddresses": [
          "0xFeE9813A4B268793D4Edc6DF11A760C3c07a2c98"
        ],
        "outputindexes": [
          0
        ],
        "crosschainamounts": [
          599900000
        ]
      },
      "attributes": [
        {
          "usage": 0,
          "data": "38373131323235373433333034373930383536"
        }
      ],
      "vin": [
        {
          "txid": "891295c0dd6ab0151f3321682b19e558b491ba12a0845d46152f5b998523299c",
          "vout": 1,
          "sequence": 4294967295
        },
        {
          "txid": "15b2ebf3bcfae7faf11d3391eb123953cc3d235c17eba2474e50d5b37e0bf97a",
          "vout": 0,
          "sequence": 4294967295
        }
      ],
      "vout": [
        {
          "value": "6",
          "n": 0,
          "address": "XVbCTM7vqM1qHKsABSFH4xKN1qbp7ijpWf",
          "assetid": "a3d0eaa466df74983b5d7c543de6904f4c9418ead5ffd6d25814234a96db37b0",
          "outputlock": 0,
          "type": 0,
          "payload": {}
        },
        {
          "value": "0.99490000",
          "n": 1,
          "address": "ELFN6RggH21WB75oFoysagEKqMKfRzVSmr",
          "assetid": "a3d0eaa466df74983b5d7c543de6904f4c9418ead5ffd6d25814234a96db37b0",
          "outputlock": 0,
          "type": 0,
          "payload": {}
        }
      ],
      "locktime": 0,
      "programs": [
        {
          "code": "2103a4a0cd626b58712ab5d1090c6b64d6408c7b21b0cef88c5ead863d8d58cee630ac",
          "parameter": "40fe97ced95c9265b977eaac113f83f5f792ba6cd1850c96583e3d834767f227c8a9bce5215d1e304e13ac5d723c2149e05550a289b8e2e3dd5fcfefaf8222bec8"
        }
      ],
      "blockhash": "463304491b29faa1a2c2ff8f8dfc9ac818b017e9718935ab074c77a234749024",
      "confirmations": 3394,
      "time": 1579030546,
      "blocktime": 1579030546
    },
    {
      "txid": "c2fb81dc741effe1f63aee6b45dc67c21ef7ebbaa2d96a30288fe5d399df04b8",
      "hash": "c2fb81dc741effe1f63aee6b45dc67c21ef7ebbaa2d96a30288fe5d399df04b8",
      "size": 323,
      "vsize": 323,
      "version": 0,
      "type": 2,
      "payloadversion": 0,
      "payload": null,
      "attributes": [
        {
          "usage": 129,
          "data": "747970653a746578742c6d73673ae681ade5969ce58f91e8b4a2efbc8ce5a4a7e59089e5a4a7e588a9"
        }
      ],
      "vin": [
        {
          "txid": "7132942c649d44585fac1d03ddba17e641a49c98adca2597eb1a2420e82dfbac",
          "vout": 1,
          "sequence": 0
        }
      ],
      "vout": [
        {
          "value": "0.00603865",
          "n": 0,
          "address": "ETB8Uob4HS76uva75KpU72N5vMgWQreHJf",
          "assetid": "a3d0eaa466df74983b5d7c543de6904f4c9418ead5ffd6d25814234a96db37b0",
          "outputlock": 0,
          "type": 0,
          "payload": null
        },
        {
          "value": "1.37524495",
          "n": 1,
          "address": "EPiMEc2MQT7yESXEoMUeaB8p8DPteLe8oN",
          "assetid": "a3d0eaa466df74983b5d7c543de6904f4c9418ead5ffd6d25814234a96db37b0",
          "outputlock": 0,
          "type": 0,
          "payload": null
        }
      ],
      "locktime": 0,
      "programs": [
        {
          "code": "210242cd0ad27c0d075e580fe9c0fe2576d5d1647621532bb0a124c4a11b73c4eeeeac",
          "parameter": "409b9bb97f2f520de699cadb8a3f0c0a75d228cc02fda990080bc14ba43b1c9672c40e7a435206e526ded035bb4a520b51d4c5365f490837c1b95acbf563cd51c7"
        }
      ],
      "blockhash": "463304491b29faa1a2c2ff8f8dfc9ac818b017e9718935ab074c77a234749024",
      "confirmations": 3394,
      "time": 1579030546,
      "blocktime": 1579030546
    },
    {
      "txid": "8ffd3c43fe5382eaa291e549b356da521909bbe1c44d37b8fce6f60624effceb",
      "hash": "8ffd3c43fe5382eaa291e549b356da521909bbe1c44d37b8fce6f60624effceb",
      "size": 332,
      "vsize": 332,
      "version": 0,
      "type": 2,
      "payloadversion": 0,
      "payload": null,
      "attributes": [
        {
          "usage": 129,
          "data": "747970653a746578742c6d73673a5468616e6b20796f752c206e6578742073746f7020546f70373020666f72203420454c41"
        }
      ],
      "vin": [
        {
          "txid": "9d622455689ff4716262aeecd69a1b0a84edac50da0daecf2c067e14de2e484d",
          "vout": 1,
          "sequence": 0
        }
      ],
      "vout": [
        {
          "value": "0.02300419",
          "n": 0,
          "address": "Ea1pA4Jronequuinscgmsqq5YpxCFbmCuw",
          "assetid": "a3d0eaa466df74983b5d7c543de6904f4c9418ead5ffd6d25814234a96db37b0",
          "outputlock": 0,
          "type": 0,
          "payload": null
        },
        {
          "value": "0.62207937",
          "n": 1,
          "address": "EReCz1CDiikbNQqw1JWQtmGefJh7VkT65y",
          "assetid": "a3d0eaa466df74983b5d7c543de6904f4c9418ead5ffd6d25814234a96db37b0",
          "outputlock": 0,
          "type": 0,
          "payload": null
        }
      ],
      "locktime": 0,
      "programs": [
        {
          "code": "21037afa4cd97411da0282daab1361723b35f18019732fcbe42d9242e5e7c9d0810bac",
          "parameter": "401b29c7d98771a00e0bed7ac5bfc4023efa2daddd4b86780df4a453910ae1dedda451dfcd68d1df114ea26f7deba8d49a4d4df186d7b97a930306b09254f1dc01"
        }
      ],
      "blockhash": "463304491b29faa1a2c2ff8f8dfc9ac818b017e9718935ab074c77a234749024",
      "confirmations": 3394,
      "time": 1579030546,
      "blocktime": 1579030546
    }
  ],
  "time": 1579030546,
  "mediantime": 1579030546,
  "nonce": 0,
  "bits": 402697479,
  "difficulty": "3746441789577786",
  "chainwork": "00000d41",
  "previousblockhash": "2f7f80a546f717638302b0343ddc54f44d070dfe7f263da3769ee7f51cec9ddd",
  "nextblockhash": "4e7185521972f031c6523fa5ae4e69005658406068bd04aca8c8ba0aea31f823",
  "auxpow": "01000000010000000000000000000000000000000000000000000000000000000000000000ffffffff5503e159091c4d696e656420627920416e74506f6f6c313333ef00f10120ab8d32cffabe6d6db7ae5e7465b297f448b6c5484686aa49608562c40371c55a81486a6192839b4c0400000000000000fc530000721b1900ffffffff032969b54b000000001976a91411dbe48cc6b617f9c6adaf4d9ed5f625b1c7cb5988ac0000000000000000266a24aa21a9ed49757045b0b063e6ef52c7ae032cb15c7dfef68cdfefd552958eccad53d75d720000000000000000266a24b9e11b6da333dc93c98cca9dd98ae1aa9dc5bfeadc091e71f7e6d0d26c280990f7ab143a0000000053188ed5202110af72f94a205900815f5b98232608a34f0000000000000000000cde2e345893d202a17f7131fcac6966aa984d960d7b735876cefd52b3724d0f41daa654b5018120933a152ee923adaedb350408f37dd5cc6b992e287db40a511b6fb378b4d62f9e1efb81a9427e3a4d7ba13de0935577f086a7970c73be52512fce15e9025b6096bb65bd8967760d1aa70f688930c0d7af20f78258d3909a83bedd335cff3d543f816e5a423ea23893f4f54717b6e95f0dc1466ee6080ca2b8c711751d714bbb1731c1ff9ae1daa438f87c4008feca72edf8a0492da2e9056fe0e55fb23b4c7286f2b19861aea5312ad48bd007856c268542421f61ab224e89782d1036afca4d68c6b8b59488272294e0010e6e3d3d679d4d618302d55046025c5835b75f9aff9e846a2e450983e2fe3147e3f3f4095ca1a8ecfd8ce89ef39b6f7575dcfa72af5071c510e5a70c0e313c4ebeee198d3a30da9a8d66e75fc2493ea04390da48c65ff1201c996906cf5d72f7a586dbd06323d8f3c210ab6a5e4967444ff6fa947a916f43409887ac3f88751bfa1e6b8744a2eb25f762bf9928263600000000029c9503fc92733604b93471f87147ccc87aae598f1ea3d71c9db40b8e8a96f84ac2c25db0c08244d3eba88658a8fdfa01ecf1a5d52c5e787bcd95af626e02bfc20200000000e0ff7fa1b2116f917932c2750a130a7f0d87aad07b4a7dece2000000000000000000009e94b5bc5f56eb1d0efeb99cc9214a2277668f13a6df5869307e8bb754a229d01e181e5ef265141791358a14",
  "minerinfo": "Antpool"
}
