{
  "hash": "02ba4f72e616df49f3ad88f9822c7173389d21925609dc6560ec9a8828ac409d",
  "confirmations": 10209,
  "strippedsize": 5909,
  "size": 5909,
  "weight": 23636,
  "height": 553991,
  "version": 0,
  "versionhex": "00000000",
  "merkleroot": "4c30204da22fc9abd366ffcb460a1dc2b983670bf8d88b3bf4c551e074d5f31e",
  "tx": [
    {
      "txid": "b6fc02ef1e93360ad988024d45cf6030b7ee01f44e27d829127ebbccc9e7dabf",
      "hash": "b6fc02ef1e93360ad988024d45cf6030b7ee01f44e27d829127ebbccc9e7dabf",
      "size": 202,
      "vsize": 202,
      "version": 9,
      "type": 0,
      "payloadversion": 4,
      "payload": {
        "coinbasedata": "OKPOOL.TOP"
      },
      "attributes": [
        {
          "usage": 0,
          "data": "d09b446a67dcfb3e"
        }
      ],
      "vin": [
        {
          "txid": "0000000000000000000000000000000000000000000000000000000000000000",
          "vout": 65535,
          "sequence": 4294967295
        }
      ],
      "vout": [
        {
          "value": "1.50732962",
          "n": 0,
          "address": "8VYXVxKKSAxkmRrfmGpQR2Kc66XhG6m3ta",
          "assetid": "a3d0eaa466df74983b5d7c543de6904f4c9418ead5ffd6d25814234a96db37b0",
          "outputlock": 0,
          "type": 0,
          "payload": {}
        },
        {
          "value": "1.75855121",
          "n": 1,
          "address": "EMzsK7X3MhwG5WeCJFCqBwPtgMtJpBeFKL",
          "assetid": "a3d0eaa466df74983b5d7c543de6904f4c9418ead5ffd6d25814234a96db37b0",
          "outputlock": 0,
          "type": 0,
          "payload": {}
        }
      ],
      "locktime": 553991,
      "programs": [],
      "blockhash": "02ba4f72e616df49f3ad88f9822c7173389d21925609dc6560ec9a8828ac409d",
      "confirmations": 10209,
      "time": 1579033559,
      "blocktime": 1579033559
    },
    {
      "txid": "9fce91e1d9d524c519548dd6ec51d356848d42b61a02374b26bfa65a0419d371",
      "hash": "9fce91e1d9d524c519548dd6ec51d356848d42b61a02374b26bfa65a0419d371",
      "size": 369,
      "vsize": 369,
      "version": 0,
      "type": 5,
      "payloadversion": 0,
      "payload": {
        "blockheight": 153913,
        "sideblockhash": "03630e7dc6fcc4e952335fd9a9824f4ae7f70ef5e5c7d0ac52200993cdfbb453",
        "sidegenesishash": "0e739a2b87774ef2266a3cabc79a8e1201732fe409cfe50bd4125efb1d1169b5",
        "signature": "b345f05c9513eb1c205a99b29b9ddd376f7735bc9a803011135e2136d602436d7dc69310a3b83a854d004c9fc055f517820b25ceddc4f71a8918d1466c49def3"
      },
      "attributes": [
        {
          "usage": 0,
          "data": "32303931303838343336343638383133383830"
        }
      ],
      "vin": [
        {
          "txid": "ac3161e397a1d37673be4b46cf4b0b13d7ec9d324a485489ad03229d39e7cab1",
          "vout": 0,
          "sequence": 0
        }
      ],
      "vout": [
        {
          "value": "0.00600000",
          "n": 0,
          "address": "EQfAon1ZVPp5t3tyarDJrLcPGZ82DtYLWV",
          "assetid": "a3d0eaa466df74983b5d7c543de6904f4c9418ead5ffd6d25814234a96db37b0",
          "outputlock": 0,
          "type": 0,
          "payload": null
        }
      ],
      "locktime": 553989,
      "programs": [
        {
          "code": "21039f3065fbc2c6e08ce5c37ec3eeb529b0cc67190bbda21f2bb38aae4033815f5aac",
          "parameter": "405b0ff0d5504ffd2a0680b108cf64c5aa3f3458ef7b7ed57d56d44e214952d38256bd353d8bf3f9cfc699ca9920fcc273141df9e9768ca64c8e3fb91242d8b7fd"
        }
      ],
      "blockhash": "02ba4f72e616df49f3ad88f9822c7173389d21925609dc6560ec9a8828ac409d",
      "confirmations": 10209,
      "time": 1579033559,
      "blocktime": 1579033559
    },
    {
      "txid": "3b58b8357fe9f0b94b3347da97244cccd6b00ce032e0e13179f7c33a122b3b66",
      "hash": "3b58b8357fe9f0b94b3347da97244cccd6b00ce032e0e13179f7c33a122b3b66",
      "size": 369,
      "vsize": 369,
      "version": 0,
      "type": 5,
      "payloadversion": 0,
      "payload": {
        "blockheight": 282174,
        "sideblockhash": "1a595ac48da723a9f2f49f89c46297abb4431ca89f23b06a787e605b899568f4",
        "sidegenesishash": "a3c455a90843db2acd22554f2768a8d4233fafbf8dd549e6b261c2786993be56",
        "signature": "e123dec2dd62462f66c13f50ac8b93bdf11b5804ec06cd6ada54db5aa6d1716f96d3301e75c83c28bbb91766de187569558b101182200e112c7b8b538db6bbad"
      },
      "attributes": [
        {
          "usage": 0,
          "data": "32333238333736383734393533343234373830"
        }
      ],
      "vin": [
        {
          "txid": "893f14642f1bc9a3731968943369e5b2f26657d4b4c8611447fb3d707f3cbb7d",
          "vout": 0,
          "sequence": 0
        }
      ],
      "vout": [
        {
          "value": "0.00650000",
          "n": 0,
          "address": "Ee8NkbxgNGJhZzUdK94tfpxG6jkqMNwHA5",
          "assetid": "a3d0eaa466df74983b5d7c543de6904f4c9418ead5ffd6d25814234a96db37b0",
          "outputlock": 0,
          "type": 0,
          "payload": null
        }
      ],
      "locktime": 553989,
      "programs": [
        {
          "code": "210254935f36538965e6f312c5111d36bde090df10f327c06db0cc9b14c355bff289ac",
          "parameter": "4043cc638cee5ccb7b022dec5240033c22b325af81da9eea8576b32d0f48fc57081a9814e62af04ba67849a79af272f4ea807406b3b1a815897254a9b175b3dbfe"
        }
      ],
      "blockhash": "02ba4f72e616df49f3ad88f9822c7173389d21925609dc6560ec9a8828ac409d",
      "confirmations": 10209,
      "time": 1579033559,
      "blocktime": 1579033559
    },
    {
      "txid": "9ab130b3da66dd0e8cdaa6da3fff7ad8fd3db5e9208b6f664ab9e392f1a9b877",
      "hash": "9ab130b3da66dd0e8cdaa6da3fff7ad8fd3db5e9208b6f664ab9e392f1a9b877",
      "size": 343,
      "vsize": 343,
      "version": 9,
      "type": 2,
      "payloadversion": 0,
      "payload": null,
      "attributes": [
        {
          "usage": 0,
          "data": "2d34363333333230333136313036303939333332"
        }
      ],
      "vin": [
        {
          "txid": "e83785ae3f1691da5071f50bb4f5e8ad5f8b946c5b92a7c549c26b679fc6f118",
          "vout": 1,
          "sequence": 0
        },
        {
          "txid": "b339df052eb04e261102de0d5215586205d866102cfd15787314f5e15f5c92f1",
          "vout": 2,
          "sequence": 0
        }
      ],
      "vout": [
        {
          "value": "4298.18145034",
          "n": 0,
          "address": "ESbrGh6X6J8XqqWR2vdzZBsRRtsrvzkhAe",
          "assetid": "a3d0eaa466df74983b5d7c543de6904f4c9418ead5ffd6d25814234a96db37b0",
          "outputlock": 0,
          "type": 0,
          "payload": {}
        },
        {
          "value": "1282.34384966",
          "n": 1,
          "address": "ER4Rv4L6xJrQpnxhNqBn7TJqM2ag9P2cd5",
          "assetid": "a3d0eaa466df74983b5d7c543de6904f4c9418ead5ffd6d25814234a96db37b0",
          "outputlock": 0,
          "type": 0,
          "payload": {}
        }
      ],
      "locktime": 0,
      "programs": [
        {
          "code": "210398cbfdd6bf7654042264fbdb3e28d43b6ed0bcc8017d4f54857d22a27b50cd7aac",
          "parameter": "4023f1509406dcc94c081ec96878ccf40d378b24e7dc5f3bf173e977e67dca36dd4cf75586503042ebbdf09866f31f1a61d310823a9d0e6553bfe0fb0cf5d52d6b"
        }
      ],
      "blockhash": "02ba4f72e616df49f3ad88f9822c7173389d21925609dc6560ec9a8828ac409d",
      "confirmations": 10209,
      "time": 1579033559,
      "blocktime": 1579033559
    },
    {
      "txid": "8c9d4bb8daf705774d97bfd8a6a63b74febe269fcee2f7c1492fc8dc51f8bc01",
      "hash": "8c9d4bb8daf705774d97bfd8a6a63b74febe269fcee2f7c1492fc8dc51f8bc01",
      "size": 731,
      "vsize": 731,
      "version": 9,
      "type": 2,
      "payloadversion": 0,
      "payload": null,
      "attributes": [
        {
          "usage": 0,
          "data": "32313435343334383930"
        },
        {
          "usage": 129,
          "data": "747970653a746578742c6d73673a"
        }
      ],
      "vin": [
        {
          "txid": "d4b50028ca726826bf16f77c7867dc00f2ed67da613b09359e5c673c186be3f8",
          "vout": 1,
          "sequence": 0
        },
        {
          "txid": "c6fa69b2eb3575cd5527d154392d138ae6c25f22685d7ec2995cae5c3e2f9e15",
          "vout": 647,
          "sequence": 0
        },
        {
          "txid": "c6fa69b2eb3575cd5527d154392d138ae6c25f22685d7ec2995cae5c3e2f9e15",
          "vout": 373,
          "sequence": 0
        },
        {
          "txid": "c6fa69b2eb3575cd5527d154392d138ae6c25f22685d7ec2995cae5c3e2f9e15",
          "vout": 594,
          "sequence": 0
        }
      ],
      "vout": [
        {
          "value": "0.10000000",
          "n": 0,
          "address": "EKerSuqjUUoJFtqc71CnJtfAK4YDfy2HpP",
          "assetid": "a3d0eaa466df74983b5d7c543de6904f4c9418ead5ffd6d25814234a96db37b0",
          "outputlock": 0,
          "type": 0,
          "payload": {}
        },
        {
          "value": "18.47138360",
          "n": 1,
          "address": "ES5q6WqfGpkbjEiFvTsfBunzgybD9RMAxM",
          "assetid": "a3d0eaa466df74983b5d7c543de6904f4c9418ead5ffd6d25814234a96db37b0",
          "outputlock": 0,
          "type": 0,
          "payload": {}
        }
      ],
      "locktime": 0,
      "programs": [
        {
          "code": "2103d06cabadd7afa26e4ca236110feee6ed6b73fda200959c098f498e866a544186ac",
          "parameter": "4024cc78968c79016688b225940e17d446f4a7897758ba415c59be9e5be5f6c49df288750d9e6c53d8e6bab7bdc1e9abb1d598869cdf9f2cfbe254140793cdb26e"
        },
        {
          "code": "2102efa3d329a9f67293b3bb6408dba9c51131b2234a34b05107283a0db8c17f2a35ac",
          "parameter": "40489782f3d9e7a6a09fb6dfea17b53c54406d369ffc27c0cfc59d5842dcc5f524406301d27f045b9eb944ae143fdf8c78f87fe9f2767d86ee059a70d34fb53bea"
        },
        {
          "code": "21021963ef73952d21b91fa8134b42678f6172c1ea5e20643e73979f976116403570ac",
          "parameter": "40c854d771089bbca5e2d2fcbb44fc47add44c16cbdb70bfc9d99b2d8e3f1d4734f14b22314b91974842bfb5e578d984e514f838cf0ebf73325c4bdc8c495e79de"
        },
        {
          "code": "21034208c8b82de1f00bdf914233249bd501c5c6242bdad2351b235f8eb838e6ea2bac",
          "parameter": "405934e22832869599ad2ce54b289eeef01ea2af40ccb9e8790a7f77fa96557d26ab253d5ba94b85dd1de1c73ff1a00c876974ef3e56791455ae526f1bb6e2d955"
        }
      ],
      "blockhash": "02ba4f72e616df49f3ad88f9822c7173389d21925609dc6560ec9a8828ac409d",
      "confirmations": 10209,
      "time": 1579033559,
      "blocktime": 1579033559
    },
    {
      "txid": "631c8cc78cef8250d636ad59eff98abe931f64aa333afa63bb71abff802c14e6",
      "hash": "631c8cc78cef8250d636ad59eff98abe931f64aa333afa63bb71abff802c14e6",
      "size": 3009,
      "vsize": 3009,
      "version": 9,
      "type": 2,
      "payloadversion": 0,
      "payload": null,
      "attributes": [
        {
          "usage": 129,
          "data": "747970653a746578742c6d73673a766f7465"
        },
        {
          "usage": 144,
          "data": "7b22506f73746d61726b223a7b22707562223a22303362616136623330623035646366663066333563623739316166626339643630393661613933613231653638363962633837303961393038356236326133353537222c227369676e6174757265223a226366643037356564346433373637393434653131303863623039653962616363333737653331353337303762323133306466613365396463373938323962356666383037313639663665383636323665303566313630343661383730373939323337626539623163633139393761656161663131623339376137333931386362227d7d"
        }
      ],
      "vin": [
        {
          "txid": "fafb5771dc7bf2e4e900a1ce899227cdc5c8d984192a313a8d6dc89dffdfba46",
          "vout": 2,
          "sequence": 0
        },
        {
          "txid": "c6fa69b2eb3575cd5527d154392d138ae6c25f22685d7ec2995cae5c3e2f9e15",
          "vout": 213,
          "sequence": 0
        },
        {
          "txid": "28429473632a05cfce54aedc389b58390b2a8b013d692406236537282e26f5fe",
          "vout": 642,
          "sequence": 0
        },
        {
          "txid": "f3c77428456302fdcd94f86adf3341cd2515f32cf64c49e290c95938ae46f25d",
          "vout": 819,
          "sequence": 0
        },
        {
          "txid": "11c0f7c59fcf033f4f58612721bdfbdb684a9046c4f67d269c3c996e83d624c7",
          "vout": 40,
          "sequence": 0
        },
        {
          "txid": "ef4eed5b09d64111007a48fc62f775112f9340206d7969c43912d57a7f5841d6",
          "vout": 39,
          "sequence": 0
        },
        {
          "txid": "3e55170838e853f73af2133898cdbb6187b7363666407a35ed6540c6a284558b",
          "vout": 41,
          "sequence": 0
        },
        {
          "txid": "123a4bc0b1546faca87b422cd38a7e454570b14ff3d083c620d69d1e74d7cb34",
          "vout": 39,
          "sequence": 0
        },
        {
          "txid": "c48c081dc419b83c6ae33b847c336c7232007d0c7317258d5bd052dc60b0ee16",
          "vout": 42,
          "sequence": 0
        },
        {
          "txid": "f3303095662f8e83f355408244afb1e866ee34a9ca54de64e35786d2de06701e",
          "vout": 44,
          "sequence": 0
        },
        {
          "txid": "6450e3496fb3f2c348112161ca682867a03209a7f88bdbe5bbba4d27164c9ecc",
          "vout": 812,
          "sequence": 0
        },
        {
          "txid": "cf73c276d52af9495ff19c65c2c2d250ab0af966e60bd649eb226134b68a61ac",
          "vout": 35,
          "sequence": 0
        },
        {
          "txid": "68bab29ff112e63a8404838369c170486a7adfd5dfaece800af77091a8a3c9b3",
          "vout": 403,
          "sequence": 0
        },
        {
          "txid": "21a5426ed50054e87285256361c0baa6a71e198bd417272d9900c68aca9451cd",
          "vout": 221,
          "sequence": 0
        },
        {
          "txid": "c452a2d25604f46649a3d1e41a7301d53acadf43aa351dcd84de4c895a851269",
          "vout": 21,
          "sequence": 0
        },
        {
          "txid": "5d736ebc0c9d91c6a21133eb08bd7afccf0cd7a76226374cb32e0208f6821a64",
          "vout": 21,
          "sequence": 0
        },
        {
          "txid": "d2b02394a1b288f002eba506b74694263d51f01a7ddffe25e21bb69f30193dd6",
          "vout": 39,
          "sequence": 0
        },
        {
          "txid": "d245f2df1a1b1c14e1a43f602ed55d08ec39b31893a706d66b31e6acec45a700",
          "vout": 16,
          "sequence": 0
        },
        {
          "txid": "7240e3619dd317dd91f931d289cb2e306ee4be57ff84c73d5b8d3aa0d56c6886",
          "vout": 630,
          "sequence": 0
        },
        {
          "txid": "d72895a4d9bd88bdae7b79fb2db8e6b5e8ce5e39647bb26b2c6df5bf2c85161e",
          "vout": 581,
          "sequence": 0
        },
        {
          "txid": "195d7dcf5228806e4df96ef392bbb065a6f5acc00bdab65b6c9bb2c96ff3cc43",
          "vout": 230,
          "sequence": 0
        },
        {
          "txid": "d501e01bd9d4855628413620c3110c54ce7bc831fd56bb1dd6cd8e707c7fea8b",
          "vout": 480,
          "sequence": 0
        },
        {
          "txid": "13eeac7a009e24f3f3dcfdf761c36a24b60bfe15ced40780bcb149f8c953f093",
          "vout": 64,
          "sequence": 0
        },
        {
          "txid": "96b75dccfac54f9033f614d516a53613e8e5a305d25664cc0ee8487d682451e3",
          "vout": 23,
          "sequence": 0
        },
        {
          "txid": "52d937edd22d35b778ff2e9e91f4af291638b8ff1b3e895aa2e86bb6a7107e54",
          "vout": 4,
          "sequence": 0
        },
        {
          "txid": "5b1a3ca8aac38ce276c7bf458762bc0e535ace3fcbc1ee72ddcf14e34a550c5e",
          "vout": 650,
          "sequence": 0
        },
        {
          "txid": "eecc4feea9bbcc1634bb3166ffe183c0b904775e781eb26c6532805ef0c0ed70",
          "vout": 29,
          "sequence": 0
        },
        {
          "txid": "1d8d0426c17a287b9322332773423fa19591ce68e6f05437a96ba70e03afda75",
          "vout": 18,
          "sequence": 0
        },
        {
          "txid": "aca446d47f8db437e2fdca846b6da9510fa99c53b913a0c5bfe5d98289ff4b78",
          "vout": 2,
          "sequence": 0
        },
        {
          "txid": "bc5af5a865078bbffa6efec2d30db80cf1ef68c08f4f8c00e821adbbece18042",
          "vout": 29,
          "sequence": 0
        },
        {
          "txid": "295b32918311a1bb398c03e29355d0a74e89175d58f3982dc174c56fc952556c",
          "vout": 50,
          "sequence": 0
        },
        {
          "txid": "213f10ddda89b0f52701091e6c2e6c9fe519ba82ba41b84ee5d175cb0281a48e",
          "vout": 104,
          "sequence": 0
        }
      ],
      "vout": [
        {
          "value": "0",
          "n": 0,
          "address": "EHvoRzNMxKHwi4n9rJ6m79f77zmNuLrAeK",
          "assetid": "a3d0eaa466df74983b5d7c543de6904f4c9418ead5ffd6d25814234a96db37b0",
          "outputlock": 0,
          "type": 0,
          "payload": {}
        },
        {
          "value": "0.00004760",
          "n": 1,
          "address": "EZxunTpDtdy89rAWEMzvhUxRbhX1WNtz9T",
          "assetid": "a3d0eaa466df74983b5d7c543de6904f4c9418ead5ffd6d25814234a96db37b0",
          "outputlock": 0,
          "type": 0,
          "payload": {}
        },
        {
          "value": "150.09311641",
          "n": 2,
          "address": "EHvoRzNMxKHwi4n9rJ6m79f77zmNuLrAeK",
          "assetid": "a3d0eaa466df74983b5d7c543de6904f4c9418ead5ffd6d25814234a96db37b0",
          "outputlock": 0,
          "type": 1,
          "payload": {
            "version": 0,
            "contents": [
              {
                "votetype": 0,
                "candidates": [
                  {
                    "candidate": "02a93a1fcd2bfd33262f202123ca4fc654aa93160c0b370bc58c42f3ce10043ca3",
                    "votes": "0"
                  },
                  {
                    "candidate": "038748807a3a77bde4e990341a938513732dd1a03c363f2676d1636a883e0545e9",
                    "votes": "0"
                  },
                  {
                    "candidate": "034d9bc3385ac4bebdb18ea4377449e7b9c7d2873d5ac53a3c2e6ba7afba0bdaa1",
                    "votes": "0"
                  },
                  {
                    "candidate": "02e4d1bd588d93f8518e4840ca67eaa7ecd4795d1074b4739e7110d36bf84941aa",
                    "votes": "0"
                  },
                  {
                    "candidate": "02ab1c30c2f1684c8e8a2d6f91160aa13c56dc09661f78f387fa9a23f3d00eb055",
                    "votes": "0"
                  },
                  {
                    "candidate": "032b3180c439286faf48004219b31415e1c7ba3963c6680272d63c291fadd7b8f5",
                    "votes": "0"
                  },
                  {
                    "candidate": "03a972cd27eb3e7cac20363635511cb31b1578c1fce7c7df111dad910dd16fb026",
                    "votes": "0"
                  },
                  {
                    "candidate": "022fe443ebca8e1bf833d7df6b68194d0fc748b9a42d004f27d81f8ad8bbd8a582",
                    "votes": "0"
                  },
                  {
                    "candidate": "03f008fbac499c2e788e844c18675a39b187768224b724ae776e8eea0c7baeff57",
                    "votes": "0"
                  },
                  {
                    "candidate": "0327381cf6df713c0f510ac17c4d98acbb4837657bcaffe0348b60ebffef790371",
                    "votes": "0"
                  },
                  {
                    "candidate": "0371408049f97f82aa2678aea95723380542ebba6c472dfe997f368be7f3a6a330",
                    "votes": "0"
                  },
                  {
                    "candidate": "036e159a5e29237bac415cafb9a1fa2648795e46b49d30bd9462678363a28bc867",
                    "votes": "0"
                  },
                  {
                    "candidate": "0365a047f624c828d412fef68eab49499372b865d72085c1f2d054a931dd417c50",
                    "votes": "0"
                  },
                  {
                    "candidate": "022a6c3101b141c02c53f960d78eed09c0be984dc6e65af6f7ae5b689221e5117f",
                    "votes": "0"
                  },
                  {
                    "candidate": "0227fabfd150cd5e8c983793ba84d9fa03ccd18e75a5b6f8b06adf80ca8884da8d",
                    "votes": "0"
                  },
                  {
                    "candidate": "0243962a97398f1ea848aa3b557cf7d5f2a648700c4077f03db66da17360adb7fd",
                    "votes": "0"
                  },
                  {
                    "candidate": "020df5226886addf6be5db8c466d1510e0da9ef2fa8074a76357fde1324d2947ea",
                    "votes": "0"
                  },
                  {
                    "candidate": "034c5905bd5dccb4e268c808e8ba1bf35b9ad0c22b2689ccb894d21aacf88eb31b",
                    "votes": "0"
                  },
                  {
                    "candidate": "026c8ce246d2587df8a669eee82be4f365ab6cf4fc45e3e539cf0ab91fbab3a809",
                    "votes": "0"
                  },
                  {
                    "candidate": "036d6967eda53009c3d180756e041b67126c863f82f08d3e0a96d76111041312ec",
                    "votes": "0"
                  },
                  {
                    "candidate": "02a9f62221c699649dd133b7c95a2ad2b3a69f5682efe5aea8520bffe9c3a76914",
                    "votes": "0"
                  },
                  {
                    "candidate": "026b9ae52de23217f21e3da833e07ca6cbb5bafac9488b842e4c8d19dcd198e25c",
                    "votes": "0"
                  },
                  {
                    "candidate": "02a5b07a250fce6147ab6e54febc1f04495f7218ba19fbb4928604e7704838afe4",
                    "votes": "0"
                  },
                  {
                    "candidate": "032ff0b6ac22e144afa685e0ac9dd2d3f681620a1710ccba51a2e85822a452ac3d",
                    "votes": "0"
                  },
                  {
                    "candidate": "030fce722c5e8caf9ff7c4672e4f67c9a1b3090a35b224640e71524bb2a0c7292a",
                    "votes": "0"
                  },
                  {
                    "candidate": "02320fcc9cee07d54dd21d078823cba97983bb185ad07fb7fde6a8488c0abffa3b",
                    "votes": "0"
                  },
                  {
                    "candidate": "02ca3fd00e0ca50ce5c085bab8a5214ce81ef4ea66e56efa72b226bb6b485d4301",
                    "votes": "0"
                  },
                  {
                    "candidate": "0339227a3a2345bfcce5320f4520607af9bd9251b97c664d29b20271edf2909901",
                    "votes": "0"
                  },
                  {
                    "candidate": "0391c412cb80f97d00ad46c0519c32f4fc0187eb5923db2e57f63cb2b6ccf1b9d6",
                    "votes": "0"
                  },
                  {
                    "candidate": "0326de58abfb10bce7f81897d1e2f3207235a72679fd66830803299305a95a2c75",
                    "votes": "0"
                  },
                  {
                    "candidate": "03c02660fa9dd507284f670030b386cef7b72f2d7c010153a86b9da3569aff2f13",
                    "votes": "0"
                  },
                  {
                    "candidate": "038659a36232f36f52fbfc67a2f606922c037ec8a53757a04e4e7623943a05fc03",
                    "votes": "0"
                  },
                  {
                    "candidate": "0371402eb72be4fc85939e02c490c0ac20585fa88aced80828c77230d05bcb6029",
                    "votes": "0"
                  },
                  {
                    "candidate": "03674a7867f2d4a557764d1f61138b9f98542c9a77e8773953432ac3e48ae60226",
                    "votes": "0"
                  },
                  {
                    "candidate": "03c0b8a45b51bd3cbb996663681ea79ef58d2925596eaeac3968d157514faffe90",
                    "votes": "0"
                  },
                  {
                    "candidate": "0315067144eaad471ed0c355e6f9822c51b93308e0cd9febf0792304c605973916",
                    "votes": "0"
                  }
                ]
              }
            ]
          }
        }
      ],
      "locktime": 0,
      "programs": [
        {
          "code": "21036f315aa56a4ef7f439e31dca878fcaaa0f7e74a40bde2bc79030d4c6ab91cf3cac",
          "parameter": "40db10433a653f09e9b46fc5d3bfe931eb15f2803c60d57869f1bfcbb510515ec19f5efb60f5a5a505b1fe84afebaea1f434307d16adef6be4d123fd354c5913d7"
        }
      ],
      "blockhash": "02ba4f72e616df49f3ad88f9822c7173389d21925609dc6560ec9a8828ac409d",
      "confirmations": 10209,
      "time": 1579033559,
      "blocktime": 1579033559
    }
  ],
  "time": 1579033559,
  "mediantime": 1579033559,
  "nonce": 0,
  "bits": 402697479,
  "difficulty": "3746441789577786",
  "chainwork": "000027e0",
  "previousblockhash": "5b84c2cd71dcf77574ba54d31c40d42f32cf401c3e3e1b275394479489c63ad3",
  "nextblockhash": "e16dbb2bcf3646b524df1139e58f5f1510e38392f41f91298ab535b513076906",
  "auxpow": "02000000010000000000000000000000000000000000000000000000000000000000000000ffffffff5203e7590904fb231e5e7669702f7777772e6f6b65782e636f6d2ffabe6d6d1bca040b9a8e681c771e40c8335eaa322729864ad55bdd13c95993c62198975a020000004204cb9a1604d192f1dc180000000000ffffffff03b2ffed4b0000000017a914804afd8b3479267b0cd0bb2fa2e217096005fb8d870000000000000000266a24aa21a9edf314d06bd2256709f1b084cd050ee561b68f87c2ac02500e7931a311842c60400000000000000000266a24b9e11b6d3d06f1b54f66c3fe5d88b0fa32d98453372b0076a7e1781245cc56bf1268a5cc00000000000000000000000000029dc47b3263c2cbf676d9c08845b9db5eee120efa8ce60cff5df59443db52322fffc190a1307f68ceea6870186ecc0a7a70e79075714595f70486c4c946158a08ca99d2ac96a9f9f5ff560ca2025602c9b27e49965c55070017529542d7373f1ea8fe1f6803c1657aa7c4c05b1d3930fda9f38ba8c80bf0a835fe70172666cc33ce154237c8ff4ffc9d06c01f734d9daf5b0a7a8de272334e8a6f94ce624de48c500e9fe21e0f1188d1a6597aac1ead32007fa94e0daf95bc988f22705608f00bc88e1adc8f927baebf1f6a6af9044087131fd784099c86780f9f1e97dbb972274300c007ceea329a7b725e5d2ae1d903ddd8cea67f45106c8ab870a3e8ce894ea46deaca19f01531501670abf5039fe86e12d2db9014a4939c33f63f48f4413c19fb3cbf59b8e693ea2e5772ef484efba1f2050cf37f3c608a4b0ef5dc3739765f4298034e261711812ba4cdf6501ea36e5fa166b97a11ce90815783f5a384fb589b38bcca8586d75839e34959f37b23b82228f2a61220013ef4069110795569533991fef5ba1d95c0f9e44676310d2bdbf761f6a1dd4b00000000015ded27ff40ae37faa554a7d17533e61ed5333853ac7e0fe30aa6e7173298a7090000000000e0ff3f4c9ae423af5b2d697e6b1d600597b22c0250b3e87ba70700000000000000000021c2aa935d646d7997025db3dcd76801fab6431175abed49c492f6768bffe784fa231e5ef26514175497301a",
  "minerinfo": "OKPOOL.TOP"
}
