{
  "hash": "e68102f3b5ef4403899e14da12a5f76f21225a4987e969d2b83eb962b4224889",
  "confirmations": 4620,
  "strippedsize": 2236,
  "size": 2236,
  "weight": 8944,
  "height": 556483,
  "version": 0,
  "versionhex": "00000000",
  "merkleroot": "2e72803ff66e65e19f0057e7b2f31e087a4c6950ed2a8b0945599c2136e81a25",
  "tx": [
    {
      "txid": "9a370980e677567389a36f8b11f1ae556822161866179c7264a8cb3899fb9fd2",
      "hash": "9a370980e677567389a36f8b11f1ae556822161866179c7264a8cb3899fb9fd2",
      "size": 201,
      "vsize": 201,
      "version": 9,
      "type": 0,
      "payloadversion": 4,
      "payload": {
        "coinbasedata": "HuobiPool"
      },
      "attributes": [
        {
          "usage": 0,
          "data": "e210d8db857de19b"
        }
      ],
      "vin": [
        {
          "txid": "0000000000000000000000000000000000000000000000000000000000000000",
          "vout": 65535,
          "sequence": 4294967295
        }
      ],
      "vout": [
        {
          "value": "1.50716132",
          "n": 0,
          "address": "8VYXVxKKSAxkmRrfmGpQR2Kc66XhG6m3ta",
          "assetid": "a3d0eaa466df74983b5d7c543de6904f4c9418ead5ffd6d25814234a96db37b0",
          "outputlock": 0,
          "type": 0,
          "payload": {}
        },
        {
          "value": "1.75835486",
          "n": 1,
          "address": "EVXNSmx1KzT6Pxzcup3QGh1vCKZckz8XDD",
          "assetid": "a3d0eaa466df74983b5d7c543de6904f4c9418ead5ffd6d25814234a96db37b0",
          "outputlock": 0,
          "type": 0,
          "payload": {}
        }
      ],
      "locktime": 556483,
      "programs": [],
      "blockhash": "e68102f3b5ef4403899e14da12a5f76f21225a4987e969d2b83eb962b4224889",
      "confirmations": 4620,
      "time": 1579332192,
      "blocktime": 1579332192
    },
    {
      "txid": "b9398b9db5b8723078e5e1ead18b016cdc9528ba8ab61fab627155f5bb3d0c0c",
      "hash": "b9398b9db5b8723078e5e1ead18b016cdc9528ba8ab61fab627155f5bb3d0c0c",
      "size": 369,
      "vsize": 369,
      "version": 0,
      "type": 5,
      "payloadversion": 0,
      "payload": {
        "blockheight": 155600,
        "sideblockhash": "29dc60190fe249892a1103a667369b3702107b0f67cc79a39f7b188abbd0d73e",
        "sidegenesishash": "0e739a2b87774ef2266a3cabc79a8e1201732fe409cfe50bd4125efb1d1169b5",
        "signature": "fcb0a8e16b85a8c5bdec97cce268049b5a59f268d2788cca2fe345840ccf2e7e568431de201a44cb93ef8cedeba767934d66f36e65541d6d5e7cd0954288daf0"
      },
      "attributes": [
        {
          "usage": 0,
          "data": "36363238393135353430353234373535313239"
        }
      ],
      "vin": [
        {
          "txid": "241739f86c86a0448d006faffef325b1f325a6e7dc934fcc3ee5f8bf07dc9d5a",
          "vout": 0,
          "sequence": 0
        }
      ],
      "vout": [
        {
          "value": "0.00450000",
          "n": 0,
          "address": "EZQQEApojpUrDBCmwZcMNTTVnNzd4QGnmF",
          "assetid": "a3d0eaa466df74983b5d7c543de6904f4c9418ead5ffd6d25814234a96db37b0",
          "outputlock": 0,
          "type": 0,
          "payload": null
        }
      ],
      "locktime": 556481,
      "programs": [
        {
          "code": "21029e9b5efe0f67d14b4666d95dd59f794ff13ad3fb209572461c2d6de000a9dd9bac",
          "parameter": "409a92a32f31dfe816425a9e7a56006a6f9653ae09f4626dcee3f37c7f794bf0f42052fbec2e42661d5290e3fa22cbfd68ec1390fa4700cf03e2658fafab8e5d7b"
        }
      ],
      "blockhash": "e68102f3b5ef4403899e14da12a5f76f21225a4987e969d2b83eb962b4224889",
      "confirmations": 4620,
      "time": 1579332192,
      "blocktime": 1579332192
    },
    {
      "txid": "e5ed01809211c117161f45d734b970fca50916d134b0dd27570090b59e160e0c",
      "hash": "e5ed01809211c117161f45d734b970fca50916d134b0dd27570090b59e160e0c",
      "size": 369,
      "vsize": 369,
      "version": 0,
      "type": 5,
      "payloadversion": 0,
      "payload": {
        "blockheight": 283776,
        "sideblockhash": "1b00161cce2ca6831be0927e4dd8eb9ccfa47a03044e522a73fbe195056944dc",
        "sidegenesishash": "a3c455a90843db2acd22554f2768a8d4233fafbf8dd549e6b261c2786993be56",
        "signature": "e76f90ec8b9db10dab85b25612ae4d549c6a05e67a38d4e7ccf4fcf6cf65ebd50852f27255ff2dd78e6b498916dcdc18a49abe585a3b2deba0eb6937dafd5bb3"
      },
      "attributes": [
        {
          "usage": 0,
          "data": "33363539343532353431373339313935323539"
        }
      ],
      "vin": [
        {
          "txid": "472cae1d8a40e616e9fd30d90159800ba8897dd69139d6ec128c929562df3848",
          "vout": 0,
          "sequence": 0
        }
      ],
      "vout": [
        {
          "value": "0.00500000",
          "n": 0,
          "address": "EanGX5Av1h1j1qWydx5aHmPA7Z2ocnvdmF",
          "assetid": "a3d0eaa466df74983b5d7c543de6904f4c9418ead5ffd6d25814234a96db37b0",
          "outputlock": 0,
          "type": 0,
          "payload": null
        }
      ],
      "locktime": 556481,
      "programs": [
        {
          "code": "21027cebb6fbb5e496a669f45a3926bae59ed4e75b354f94fe297fae585e75b7c038ac",
          "parameter": "40f98f0639c7d12eb982551eecd203a8b21e9c7a53e12bf0c979331a1122c0288241a65dd4667a4f11028543a19885cd793405459f1cca407559b89dcc4009e810"
        }
      ],
      "blockhash": "e68102f3b5ef4403899e14da12a5f76f21225a4987e969d2b83eb962b4224889",
      "confirmations": 4620,
      "time": 1579332192,
      "blocktime": 1579332192
    },
    {
      "txid": "f3a20869d867e3afa90eb4648fd801e38babab8c0b26ff700a34b5beca9a334a",
      "hash": "f3a20869d867e3afa90eb4648fd801e38babab8c0b26ff700a34b5beca9a334a",
      "size": 301,
      "vsize": 301,
      "version": 0,
      "type": 2,
      "payloadversion": 0,
      "payload": null,
      "attributes": [
        {
          "usage": 0,
          "data": "32383238323132383730353036313437393834"
        }
      ],
      "vin": [
        {
          "txid": "5bad50a0a8b926626755017bafcadc5a0e4d5bd2a1fce61cb29e4d1e90e1c01f",
          "vout": 1,
          "sequence": 0
        }
      ],
      "vout": [
        {
          "value": "8.27245200",
          "n": 0,
          "address": "EcVdaz8SEx9WwPaRN8koKGTNU3DYb8tsrz",
          "assetid": "a3d0eaa466df74983b5d7c543de6904f4c9418ead5ffd6d25814234a96db37b0",
          "outputlock": 0,
          "type": 0,
          "payload": null
        },
        {
          "value": "1102.54442016",
          "n": 1,
          "address": "ESqkHLtkbiTqxkouk6TVy6RRuH6f79zHh9",
          "assetid": "a3d0eaa466df74983b5d7c543de6904f4c9418ead5ffd6d25814234a96db37b0",
          "outputlock": 0,
          "type": 0,
          "payload": null
        }
      ],
      "locktime": 0,
      "programs": [
        {
          "code": "2102f8d51b9000b41c709de73f23231eb3512dc92e93acfa93d14a538058a0958641ac",
          "parameter": "400ac67ba0f0253a96b08f651a160b8a90d14746ff03dda7fb298231840d8dbcefb6db4458100e3de81a609977c6e785fcb8d19543c075025c2b21f6eb038357e2"
        }
      ],
      "blockhash": "e68102f3b5ef4403899e14da12a5f76f21225a4987e969d2b83eb962b4224889",
      "confirmations": 4620,
      "time": 1579332192,
      "blocktime": 1579332192
    }
  ],
  "time": 1579332192,
  "mediantime": 1579332192,
  "nonce": 0,
  "bits": 402695880,
  "difficulty": "3886749088189714",
  "chainwork": "0000120b",
  "previousblockhash": "e47eb605ce65e470a17909687c22b85521305f30702599683a31b61e72fcb25d",
  "nextblockhash": "52da5236e2beacc4fbc94802ce7f30120335acefa275785712dfe73567fc73f4",
  "auxpow": "02000000010000000000000000000000000000000000000000000000000000000000000000ffffffff4a03ff5b090471b2225e55532f48756f42692ffabe6d6db2a68865944ffcb69a22b8cee395ba98c38a56a902599dfbe8976dca19c3ae5908000000dbd8e169088c0245811e500b00000000ffffffff046e34004b000000001976a914e582933875bedfdc448473c00b474f8f053a467588ac0000000000000000266a24aa21a9ed41d14c757285e066be27ba7525a0304de9bdad4d9c03a3544c9f99c1fb4a2db900000000000000002b6a2952534b424c4f434b3acd2061d808f7843f5a1df55f90ab32bda853e431a97e6ee0968bd634001f306e0000000000000000266a24b9e11b6de4c0390046fba37248c6cf89a19c31bce172a4ff93327feda3e431470a17391a000000000000000000000000005da0e4382041164302aaa2c1342ba78758d0f54236dbbb0cb363d432b40c1ed15b9eb1d47aad6934d654d3be034d7b3a80d9ab8668e566eaaf6e75b93283fcf860f8f0ff81238dd9e6a23f05e5828dcf55defa5cd40adc69bfcd65758fcc32998906d4d8f6390926acae8b2d7c6ecb365cd429e2e7f3bd97e6afae3ee5a8dd46138bd0f215bbcaeb008bc679aabcfe4e8a8e3791cf652599ceb08fd482ab1d0272de450686d06da0eb82ae2f76e89be69cf5d10f8595f00c583ff06e3fe2ca511e40f1c7f73e70787756de45af26aaf7ac8777d0990b2e99dff1a11b1a436ea4f4794d0c5c3a4d8215e1e1b3d794ff3676932b0ce7da95a46f042687af3eab6c3a912508e69901bf475b3c2298b1114f06dad10d6fda7eef5e66a01788fbfb4fdde9d1fdeecf116081c5abc9212f8c2a25ae85832875a52203cf75e1c543a7906081039052571eb62f45c90e35b6a2462ea618c1784a54637086388778726a850454f549371cc44265f26336f73669794bcdc5bea9fe224b158e4a421fec16f6b1648330d3e9c935c03261cfff14179b445d704ffc848516000000000300000000000000000000000000000000000000000000000000000000000000008dcdfe7f303b754eddeb7134c4e394b14cbe3a3e7edaee0ba1234d823dfe638a0baa6e7eb2c69361b177fdc5a3ddacfb03ddd9b0c335cb122897c58e137ff80d010000000000c020ab494e0d666f7873c2de1ab4991c84c9de55210d47b70900000000000000000049d4f33a34ce5eb6854c7b739719c5200bc2d4e6817605f4bf6da22b0bc569c86ab2225e780c13170800604a",
  "minerinfo": "HuobiPool"
}
